S1231000BD100BBD1024BD104B0F3FCE10EFFF2F00CE0C35FFA00DFE2F94FF2F90FE2F96A5
S1231020FF2F9239B6A0078A80B7A0070E39CE2F93BDE0BF863ABDE075CE2F92BDE0BF8678
S12310403ABDE075CE2F91BDE0BF39BD10BCBD10C87D2F9027FBBD10D6BD102EBD10C8BDB1
S123106010A74D27077D2F9026FB20E539B62F9481112B0139B62F9581612B0139B62F96F3
S123108081612B0139B62F9781252B0139FE2F94FF2F90FE2F96FF2F9239FE2F90FF2F94C4
S12310A0FE2F92FF2F943986FFF62F92F12F9A260AF62F93F12F9B2602860039CE10C3BD94
S12310C0E07E391B5B324A04CE10CFBDE07E391B5B313B314804CE10E3BDE07ECE10E9BDBF
S12310E0E07E391B5B313242041B5B33344304B62F904C19B72F908110270220347F2F9076
S1231100B62F914C19B72F918160270220237F2F91B62F924C19B72F928160270220127FDE
S11811202F92B62F934C19B72F93812426037F2F93B6A01F3BE0
S9030000FC
