:0400000000EF80F09D
:10000800E142E142E142E142E1420140E142E142B2
:10001800E142E142E142E142E142E142E142E142C0
:10002800E142E142E142E142E142E142E142E142B0
:10003800E142E142E142E142E142E142E142E142A0
:10004800E142E142E142E142E142E142E142E14290
:10005800E142E142E142E142E142E142E142E14280
:10006800E142E142E142E142E142E142E142E14270
:10007800E142E142E142E1424200E142E142E14241
:10008800E142E142E142E142E142E142E142E14250
:10009800E142E142E142E1424200E142E142E14221
:1000A800E142E142E142E142E142E142E142E14230
:1000B800E142E142E142E142E142E142E142E14220
:1000C800E142E142E142E142E142E142E142E14210
:1000D800E142E142E142E142E142E142E142E14200
:1000E8004200E142E142E142E142E142E142E142D1
:1000F800E142E142E142E142E142E142E142E142E0
:02010800FF00F6
:10A4FA00000D7600F37E18F97E033C000048380010
:10A50A002C00000000000000000000000000000015
:10A51A000000000000000000000000000000000031
:10A52A000000000000000000000000000000000021
:10A53A000000000000000000000000000000000011
:10A54A000000000000000000000000000000000001
:10A55A0000000000000000000000000000000000F1
:10A56A0000000000000000000000000000000000E1
:10A57A0000000000000000000000000000000000D1
:10A58A0000000000000000000000000000000000C1
:10A59A0000000000000000000000000000000000B1
:10A5AA0000000000000000000000000000000000A1
:10A5BA007C00C926037C00C8B6EA60813A24088177
:10A5CA002027ED803080D039FFEA607E03C7000083
:10A5DA000006060606060604FFFDFFFDFFFFFFFD57
:10A5EA00FDFFFDFD00FDFFFDFDFDFFFDFFFF6460BA
:10A5FA00FD00000000000000000000000000804F85
:10A60A00C752007E18F90CD80E341490150414AAF7
:10A61A000D4C0E150E4016FC17DC12D217681812D4
:10A62A001818185E18A2118D10A90EF1114A10C936
:10A63A0010B510D110EE10F57911C77911BC7B1342
:10A64A000A7B13BE7F1705500B96460B95454EC4E1
:10A65A00464FD24E4558D4444154C1494E5055D420
:10A66A004449CD524541C44C45D4474F54CF525525
:10A67A00CE49C6524553544F52C5474F5355C252FD
:10A68A0045545552CE5245CD53544FD04FCE4E55C8
:10A69A004CCC574149D44445C6504F4BC5505249FA
:10A6AA004ED4434F4ED44C4953D4434C4541D24ED9
:10A6BA0045D7544142A854CF46CE535043A8544894
:10A6CA0045CE4E4FD4535445D0ABADAAAFDE414E22
:10A6DA00C44FD2BEBDBC5347CE494ED44142D355D6
:10A6EA0053D24652C5504FD35351D2524EC44C4FF7
:10A6FA00C74558D0434FD35349CE5441CE4154CE87
:10A70A00504545CB4C45CE535452A45641CC4153A7
:10A71A00C3434852A44C454654A45249474854A4FA
:10A72A004D4944A400062E056509B3070608DA0C4C
:10A73A00200900079106C906A30727061206AD06D7
:10A74A00E0073A062D07470664119B0E4F1194073E
:10A75A00FA06520514067504E24EC653CE52C74F86
:10A76A00C446C34FD64FCD55D342D344C42FB04964
:10A77A00C454CD4FD34CD353D443CE55C62045529F
:10A78A00524FD20020494EA0000D0A4FCB0D0A00AD
:10A79A000D0A42524541CB003008080808C610DFAE
:10A7AA0071A60080812614EE01DF73DE9E27089CC5
:10A7BA007327088D4220E6DE73DF9EDE714D398DE8
:10A7CA002007369F780F9EA3DEA50809A600369CAF
:10A7DA00A926F8319FA79E783206394F58DB81990E
:10A7EA0080CB268900251B9F78917825062213D1D4
:10A7FA0079220F394FDF71DB7299719773D774DE43
:10A80A007339C60CBD05007F0111BD0834BD08931C
:10A81A00CE02688DDFA600BD0895A601BD0895CEBB
:10A82A00028BBD0879DE8A082703BD15D77F01117F
:10A83A00CE0297BD0112862C970FBD03ECDFC8BD6F
:10A84A0000BF27F2250BCEFFFFDF8ABD042E7E054F
:10A85A00EFBD0767DE8EDF0EBD042ED75ABD04C4D6
:10A86A002522D6AAE00186FFDB7D997C977CD77DDD
:10A87A0007369F780FAE003432A700089C7C26F872
:10A88A009E7832069610272B967CD67D97A5D7A65A
:10A89A00DB5A890097A3D7A4BD02CE07369F780F4B
:10A8AA008E000B32A700089CA726F89E783207DE96
:10A8BA00A3DF7CBD04EEDE7AA600AA0126037E038E
:10A8CA0045DFD80808080808A60026FB087E00D736
:10A8DA00BD0895095A260BBD0895BD0834CE00104F
:10A8EA00C6018D2B81072714810D2720812025F28F
:10A8FA00817D24EE814027DF815F27D4A700C148EC
:10A90A002403085C8C8607BD089520D67E082F375D
:10A91A00BDE2851733847F810F2603730111397FC6
:10A92A00005D7A00C9CE000FDFBD9F7807975F01EF
:10A93A000F9EC833C1202732D759C1222755965DA9
:10A94A002628C13F2604C6952020C1302504C13CD3
:10A95A002518CE015B9EC85F0832812027FBA00024
:10A96A0027F681802632CA80DEBD9FC89E78965F10
:10A97A000608DFBDE700272FC03A2704C14926028F
:10A98A00D75DC05426A9D7590F9EC8335D27DBD19E
:10A99A005927D708E70020F39EC85CA600082AFBBF
:10A9AA00A60026B53320C1E701E702D6BEC00BCE0A
:10A9BA00000FDFC839968EDE7AE600EA012710A179
:10A9CA00022208250BD68FE1032305EE0020EA0DAB
:10A9DA00DFA93926FBDE7A6F00086F0008DF7CDE0C
:10A9EA007A09DFC8DE88DF84BD0612DE7CDF7EDFFF
:10A9FA0080CE0065DF6130EE009E824F36979097D9
:10AA0A0091975E6E0022ADBD076726A832328DA5EA
:10AA1A00A600AA0126037E033CBD0618BD0834A67B
:10AA2A0002E60308080808DF71BD15E08620DE711A
:10AA3A00BD0895A600084D27D72AF5807FDF71CE7D
:10AA4A00015C4A2707E600082AFB20F6A6002BDE4F
:10AA5A0008BD089520F68680975EBD0791BD02A7BE
:10AA6A0031312604BD030635C608BD02EABD070B0F
:10AA7A00DF71D67237D67137D68B37D68A37C69BEF
:10AA8A00BD0B3FBD0A0DBD0A0BD6B3CA7FD4B0D7E2
:10AA9A00B0CE05A67E0AABCE12B1BD1438BD00C732
:10AAAA0081A02606BD00BFBD0A0BBD1483BD0AA541
:10AABA00D69F37D69E378681368D4EDEC8DF92A660
:10AACA00002707813A27197E0B4908A60008AA0021
:10AADA000C07275408A600978A08A600978BDFC898
:10AAEA00BD00BF8D0220D2276B808024037E079190
:10AAFA00811A24D34816CE0234BD0303EE00BD00EA
:10AB0A00BF6E00DE7A09DF9639BDE28024FABD0401
:10AB1A001E36B6F0028402322702860381030D260E
:10AB2A003307DEC8DF923131DE8A08270709DF8C56
:10AB3A00DE92DF907F0111CE029E0624037E03314E
:10AB4A007E033C260FC620DE9026037E0313DFC851
:10AB5A00DE8CDF8A39BD113B26FA5CD10C24045AFB
:10AB6A00D70A397E0D4C2729BD0CD1BD00C726E472
:10AB7A009688D689D0B292B12514DE829782D7837D
:10AB8A00C02882002506D07D927C2405DF827E03C0
:10AB9A00117E04F326037E04EEBD04F32014C603DB
:10ABAA00BD02EAD6C937D6C837D68B37D68A378692
:10ABBA008C36BD00C78D037E05C8BD07678D40086A
:10ABCA00968E918A2202DE7ABD04C8251509DFC84D
:10ABDA003926FD86FF979EBD02A735810B270BC636
:10ABEA00048CC60E7E03137E0B493233D78A33D7C1
:10ABFA008B33D7C833D7C98D03DFC839C63A865FC6
:10AC0A00D7585FDEC817D6589758A60027ED1127E0
:10AC1A00EA08812227EF20F2BD0A19BD00C7818800
:10AC2A002705C69EBD0B3F96AF26058DD2DFC839D4
:10AC3A00BD00C725857E05F6BD113B36818C2704EC
:10AC4A00818826A37A00B22604327E05F8BD00BFA9
:10AC5A008D06812C27EE3139CE0000DF8E24F88054
:10AC6A00309758968ED68F811822D758495849DB83
:10AC7A008F998E5849DB588900978ED78FBD00BFB0
:10AC8A0020DBBD0C29DF9EC6A9BD0B3F965C36BDF5
:10AC9A000A193246BD0A0F2749DEB19682A102225D
:10ACAA00232506D683E103241B967C91B122152520
:10ACBA0006D67CD1B2220DE600BD0F01DEADBD1075
:10ACCA005FCE00AFDFADBD109B07369F780FDEADBC
:10ACDA0035DE9E32A7003232A70232A7039E7832AF
:10ACEA0006397E1452BD087CBD00C72738274E811D
:10ACFA009A275C819D2758812C2743813B2766BD73
:10AD0A000A19DEB1965C26DDBD15EFBD0F0ADEB16C
:10AD1A00960BAB00910C23028D0B8D518D6320C8CD
:10AD2A006F00CE000F860D970B8D5B860A8D573705
:10AD3A00D60A27064F8D4F5A26FBD70B3339D60B27
:10AD4A00D10D25048DDF201DC00E24FC50201136A4
:10AD5A00BD11388129266732819D2704D00B23052E
:10AD6A008D1F5A26FBBD00BF2083BD0F0BBD107D72
:10AD7A005C5A27C9A6008D0E08810D26F48DB020D5
:10AD8A00F086208C863F7D01112617368120250BFF
:10AD9A00960B910C26028D8D4C970B323716BDE21D
:10ADAA008D33393F5245444F2046524F4D2053541C
:10ADBA004152D40D0A00965F2707DE94DF8A7E0B84
:10ADCA0049CE08B18DA4DE92DFC8397F01118122F4
:10ADDA00260ABD0B0AC63BBD0B3F8D91BD0E458DA4
:10ADEA00099610260F0C077E06358D988D937E03E3
:10ADFA00ECDE96864F975FDF98BD0C29DF9EDEC892
:10AE0A00DF8EDE98A6002609965F264EBD08938D32
:10AE1A00D9DFC8BD00BFD65C271CDEC8975881227F
:10AE2A00270709863A9758862C9759BD0F11BD11E5
:10AE3A006CBD07A82006BD1526BD1452BD00C72744
:10AE4A0007812C27037E08C5DEC8DF98DE8EDFC89F
:10AE5A00BD00C7272ABD0B3D209FDFC8BD070B4D8C
:10AE6A002614A601C606AA02274DA6039794A6048D
:10AE7A0097950808080808A600818326DD2092DE37
:10AE8A0098D65F27037E0615A6002706CE09A17E5F
:10AE9A000879393F45585452412049474E4F524547
:10AEAA00C40D0A002605CE00002003BD0C29DF9E32
:10AEBA00BD02A72704C600204E35080808DF71BD69
:10AECA00143830A60797B3DE9EBD11C4BD1452DEF6
:10AEDA00710808080808BD14AE30E007270CEE0C0C
:10AEEA00DF8A30EE0EDFC87E05C8C610BD03033503
:10AEFA00BD00C7812C26F0BD00BF8DAF8D0C6D0D36
:10AF0A0076005C288DC6187E0313DEC809DFC84F99
:10AF1A00C63736C601BD02EABD0AEB7F00A2BD00F4
:10AF2A00C780A825148103241081014998A291A2FF
:10AF3A00255D97A2BD00BF20E8D6A2262D246B8BE3
:10AF4A00072467995C26037E102589FF16481B167D
:10AF5A00CE0147BD030332A10024568DA1368D23AD
:10AF6A00DEA03226184D2771205078005C59DEC8C1
:10AF7A0009DFC8CE0A89D7A220DC640BBCA1002451
:10AF8A003920DAA60236A601368D07D6A220827E9D
:10AF9A000B49D6B3A60030EE00313137D6B237D6D8
:10AFAA00B137D6B037D6AF376E00CE0000324D2754
:10AFBA002881642703BD0A0DDFA033815A271C812B
:10AFCA007D271854D7603297B633D7B733D7B833FB
:10AFDA00D7B933D7BAD8B3D7BBD6AF397F005C8DD0
:10AFEA005624037E1526BD0C85245C812E27F48108
:10AFFA00A2274C81A127E881222608DEC8BD0F0BB3
:10B00A007E116C819F2611865ABD0A20BD0CD896E6
:10B01A00B1D6B243537E0E34819C26037E0E8D80B8
:10B02A00AB24308D06BD0A19C6298CC6288CC62CBD
:10B03A00DEC8A6001126037E00BFC6027E03138661
:10B04A007DBD0A207E173BBD0C29DFB1965C268B9D
:10B05A007E143816588DE037C127251A8DCDBD0AC2
:10B06A00198DCBBD0A0E32D6B237D6B13736BD11DD
:10B07A003B32371620038DAB33CE0119BD0303EEE5
:10B08A0000AD007E0A0D864F975ABD0CD8DEB1DF9F
:10B09A0058BD1469BD0CD89658D6597D005A260653
:10B0AA0094B1D4B220049AB1DAB27E0E34BD0A0F3A
:10B0BA00261096BA8A7F94B797B7CE00B6BD14AE5B
:10B0CA0020407F005C7A00A2BD107DD7AFDFB1DEE1
:10B0DA00B8BD107F96AF10270786012403D6AF406C
:10B0EA0097B307369F780F35DEB15C095A2604D626
:10B0FA00B3200B3208A10027F3C6FF2401509E7823
:10B10A003206CB0159D4602702C6FF7E1492BD0BCA
:10B11A003D168D0ABD00C726F5395FBD00C7D75B4E
:10B12A00979ABD00C78D4F24037E0B495FD75CBD3C
:10B13A0000BF25048D40250A16BD00BF25FB8D36AC
:10B14A0024F78124260873005CCB80BD00BFD79BFF
:10B15A009B5E802826037E0CE97F005EDE7C969A41
:10B16A00D69B9C7E2719A1002604E10127480808DE
:10B17A000808080820EC81412504805B80A5393243
:10B18A0036810B2604CE0D0539DE80DFA5C606BD45
:10B19A000303DFA3DE7EDFA9BD02CEDEA3DF80DEEE
:10B1AA00A7DF7EDEA9969AD69BA700E7014FA702E2
:10B1BA00A703A704A7050808DF9C3990800000BDF3
:10B1CA0000BFBD0A0B96B32B7496AF81902508CEAB
:10B1DA000CCABD14AE26667E14DA965B36965C36C9
:10B1EA005F37D69B37D69A378DD533D79A33D79BC5
:10B1FA003330A60136A6003696B1A70096B2A7014B
:10B20A005CBD00C7812C27D9D75ABD0B3732975C52
:10B21A0032975BDE7E9C802729969AA100260696A5
:10B22A009BA1012709A602E603BD030420E7C61273
:10B23A00965B260BD65AE1042767C6108CC6087E91
:10B24A000313860497BE7F00BD969AA700969BA714
:10B25A0001D65AE704BD02EADFA3C60B4F7D005BA5
:10B26A0027063233CB018900A705E7068D6F97BD04
:10B27A00D7BE08087A005A26E1BD030425BCBD02E0
:10B28A00F0C02182009780D7814F09A7059C7126BB
:10B29A00F9DEA39680D0A4E70392A3A702965B26C1
:10B2AA003BE604D75A4F5F97BDD7BE3297B133D723
:10B2BA00B2A1052506224CE106244896BE9ABD0C89
:10B2CA0027048D19DBB299B108087A005A26D85892
:10B2DA00495849CB058900BD0304DF9C398610977C
:10B2EA00A7A6059778A60697794F5F584925147837
:10B2FA0000BE7900BD2406DB79997825067A00A775
:10B30A0026E9397E0D499F789678D679CE00807DD8
:10B31A00005C270DBD107DBD0F86CE00829684D6B7
:10B32A0085E001A2007F005C97B0D7B1C6907E1479
:10B33A0099D60B4F20EFDE8A0826A1C6167E031384
:10B34A008D298DF2BD0B3AC680D75EBD0C298D2B97
:10B35A00BD0B37C6A9BD0B3FDEAB96C8D6C9A70041
:10B36A00E701969CD69D8D757E0706C69CBD0B3F50
:10B37A00C680D75E8A80BD0C2FDFAB7E0A0D8DEBAF
:10B38A00D6AC37D6AB37BD0B328DF033D7AB33D70C
:10B39A00ACDEABC622EE0227A4DF9CA60336A602C9
:10B3AA0036A60136A60036BD1454DEABD6C937D64A
:10B3BA00C837EE00DFC8D69D37D69C37BD0A0B3397
:10B3CA00D79C33D79DBD00C727037E0B4933D7C807
:10B3DA0033D7C9DE9C32A70032A7013233A702E76E
:10B3EA000339BD0A0DCE00FFBD15F23131CE00FE84
:10B3FA00200ADFAD8D53DFB1D7AF390986229758BE
:10B40A00975908DFBBDFB1C6FF5CA600270E08917B
:10B41A00582704915926F28122270109DFBDD7AFA7
:10B42A0096BB26078DCCDEBBBD1061DE618C007138
:10B43A002605C61E7E0313BD145486FF975CDF6380
:10B44A00DFB108080808DF61397F005D375386FFDE
:10B45A00D9859984918225112204D183250B978459
:10B46A00D785DE8408DF863339C61A965D26C58DF0
:10B47A000673005D3320D5DE88DF84CE0000DFABA3
:10B48A00DE82DFA9CE00659C6127048D3B20F8DEB1
:10B49A007C9C7E27048D2B20F8DFA3DEA39C8027CB
:10B4AA004EA602E603DBA499A397A3D7A4A6012A72
:10B4BA00EAE6044F58CB05BD03049CA327DF8D0899
:10B4CA0020F8A60108082A22E600271EA60291846F
:10B4DA002218E6032504D185241091A9250C2204FB
:10B4EA00D1AA2306DFAB97A9D7AA0808080839DE2C
:10B4FA00AB27FB4FE6005ADBAA99A997A5D7A6DE88
:10B50A0084DFA3BD02D0DEAB96A7D6A8A702E703C5
:10B51A00DEA7097E0F8896B23696B136BD0AEBBD14
:10B52A000A0E3297BB3297BCDEBBE600DEB1EB00F7
:10B53A002405C61C7E0313BD0F01DEBBE6008D1079
:10B54A00DEAD8D2C8D0CDEBB8D26BD0F3A7E0A2D0D
:10B55A00EE0207369F780F35DE865C200432A7009C
:10B56A00085A26F9DF869E78320639BD0A0EDEB100
:10B57A00E6008D182613EE06099C84260A37DB8519
:10B58A0099849784D785330839EE02399C63260952
:10B59A00DF6109090909DF634F398D037E0E428D88
:10B5AA00CA7F005C5D39BD113EC601BD0F5896B217
:10B5BA00BD0F05A70031317E0F3A8DE32768E600FB
:10B5CA0020DA8D454FE1002303E6004F3736BD0FE1
:10B5DA0003DEAD8D9B33BD030333BD106120D88DCF
:10B5EA0028A6001020DFC6FFD7B28D4C8129270577
:10B5FA00BD0B3D8D378D125F4AA10024CF16E000A6
:10B60A0050D1B223C7D6B220C3BD0B3733D7783354
:10B61A00D77931313233D7AD33D7AEDEADD67937BC
:10B62A00D6783716263B7E0D4CBD00BFBD0A0BBD32
:10B63A000CD496B126F0D6B27E00C7BD10AE260352
:10B64A007E122FBD0303A600366F00DEC8DFBDDE03
:10B65A0071DFC88DE3BD152632DE73A700DEBDDFBC
:10B66A00C839BD0A0B8D07DF8EBD0B3D20BE96B3D0
:10B67A002BB496AF819022AEBD14DADEB1398DEECD
:10B68A00E6007E0E428DDBDE8EE700398DD4D79E32
:10B69A005FBD00C727028DD1D79FDE8EA600989F77
:10B6AA00949E27F839CE16E6200BBD13557300B3C6
:10B6BA007300BB2003BD13555D26037E1469CE00BB
:10B6CA00B6162761D0AF275E2B0A97AF96BA97B303
:10B6DA00CE00AF50C1F82F4E4F6401BD12A8D6BBA1
:10B6EA002A0963016302630343890097BC96B299EE
:10B6FA00B997B296B199B897B196B099B797B0176A
:10B70A002A4025028D585F96B0262D96B197B0969D
:10B71A00B297B196BC97B27F00BCCB08C1202DE787
:10B72A004F97AF97B3398D650C20B35C7800BC791D
:10B73A0000B27900B17900B02AF196AF1097AF2321
:10B74A00DF8C25057800BC200E7C00AF2727760009
:10B75A00B07600B17600B224048D0F27EC3973005D
:10B76A00B37300B07300B17300B2DEB108DFB12663
:10B77A00037C00B039C60A7E0313CE0074A6039771
:10B78A00BCA602A703A601A70296B5A701CB082F5C
:10B79A00EC96BCC008270A670166026603465C2667
:10B7AA00F6398100000002801956AA807622F182B9
:10B7BA0038AA45803504F3813504F380800000807F
:10B7CA00317218BD14832E037E0D4CCE12C296AF71
:10B7DA00808036868097AFBD11C4CE12C6BD13BC19
:10B7EA00CE12B1BD11B9CE12B5BD17A1CE12CABDC6
:10B7FA0011C433BD15B1CE12CE8D4B27488D638649
:10B80A0000977597769777D6B28D0ED6B18D0AD6F0
:10B81A00B08D0BBD142F7E121526037E12890D964C
:10B82A0075562721241096779BB99777967699B8FB
:10B83A009776967599B746977576007676007776F5
:10B84A0000BC0C20DA39A60197BA168A8097B7D8B5
:10B85A00B3D7BBA60297B8A60397B9A60097B6D6E0
:10B86A00AF394D27199BAF464928138B8097AF26CE
:10B87A00037E123296BB97B33996B3432002323213
:10B88A002B037E122F7E1284BD1476270F8B02257E
:10B89A00F47F00BBBD11D07C00AF27E939842000BA
:10B8AA0000BD1476CE13AC5FD7BB8D7D8C8D9727E8
:10B8BA006A7000AF8DAC7C00AF27CACE0075C60394
:10B8CA00D75AC60196B091B7260D96B191B82607F8
:10B8DA0096B291B926010D0759240CE700087A009F
:10B8EA005A2B2E2728C60106250F7800B97900B8E9
:10B8FA007900B725E22BCD20DE96B990B297B9969A
:10B90A00B892B197B896B792B097B720DDC64020E3
:10B91A00D6565656D7BC8D087E1215C6147E03130A
:10B92A00DE75DFB0967797B239E601D7B3CA80D70A
:10B93A00B0E600EE02DFB1D7AF39CE00A72006CEBF
:10B94A0000A38CDE9E96AFA70096B38A7F94B0A719
:10B95A000196B1A70296B2A7033996BA97B3DEB693
:10B96A00DFAFDEB8DFB139DEB0DFB7DEB2DFB996FE
:10B97A00AF97B639D6AF2708D6B359C6FF250150B7
:10B98A00398DF1D7B07F00B1C68896B08080D7AF25
:10B99A00860097B297BC97B37E12117F00B339E63F
:10B9AA000027D1E601D8B32BCFD6AFE1002617E6A0
:10B9BA0001CA7FD4B0E101260DD6B1E1022607D62D
:10B9CA00B2E00326013956D8B320AFD6AF2741C01B
:10B9DA009896B32A067300B5BD1270CE00AFC1F8AF
:10B9EA002E07BD129C7F00B5397F00B596B3497604
:10B9FA0000B07E12A8D6AFC198241B8DCED7BC96B4
:10BA0A00B3D7B38080869897AF96B297587E1211B3
:10BA1A00D7B0D7B1D7B239CE0000DFB3DFAFDFB1CD
:10BA2A00DFA9DFA7256B812D26057300B4200481C9
:10BA3A002B2605BD00BF2559812E272D8145262E8F
:10BA4A00BD00BF256981A2270E812D270A81A12762
:10BA5A0009812B270520087300AABD00BF254F7D49
:10BA6A0000AA270A7000A920057300A826C596A96E
:10BA7A0090A797A927142A0ABD13B07C00A926F813
:10BA8A002008BD13977A00A926F896B42A887E174B
:10BA9A003BD6A7D0A8D7A736BD139733C0308D029F
:10BAAA002091BD144EBD1492CE00A37E11C4D6A916
:10BABA005858DBA95880301B97A9209E91434FF80C
:10BACA00947423F794742400CE02928D10968AD629
:10BADA008B97B0D7B1C6900DBD149D8D037E0879A2
:10BAEA00CE01008620D6B32A02862DA70097B3DF9F
:10BAFA00BD088630D6AF26037E16DE4FC1802208E7
:10BB0A00CE15D3BD130886FA97A7CE15CFBD14B8A4
:10BB1A002E10CE15CBBD14B82E10BD13977A00A7E0
:10BB2A0020F0BD13B07C00A720E0BD11B4BD14DA2B
:10BB3A00C60196A78B072B08810824044A16860299
:10BB4A004A4A97A9D7A72E11DEBD862E08A7005DFF
:10BB5A002705863008A700DFBDCE16EAC68096B252
:10BB6A00AB0297B296B1A90197B196B0A90097B066
:10BB7A005C565928E92403C00B50CB2F080808DF6C
:10BB8A009CDEBD0817847FA7007A00A72605862EAB
:10BB9A0008A700DFBDDE9C53C4808C16FC26BFDEDE
:10BBAA00BDA60009813027F9812E270108862BD6E8
:10BBBA00A9271E2A03862D50A7028645A701862F8C
:10BBCA004CC00A24FBCB3AA703E7046F052004A75D
:10BBDA00006F01CE01003980000000FE7960002765
:10BBEA0010FFFC18000064FFFFF6000001BD147688
:10BBFA00CE16E6BD143827614D26037E1230CE00DC
:10BC0A00ABBD14545F96BA2A10BD1504CE00AB968C
:10BC1A00BABD14B8260343D658BD146B37BD12D229
:10BC2A00CE00ABBD13088D31324624AA96AF270346
:10BC3A007300B3398138AA3B0774942E40772E4F8C
:10BC4A00707A88026E7C2AA0E67EAAAA507F7FFFBD
:10BC5A00FF8180000081000000BD144ECE17438D85
:10BC6A003D96AF818825037E1388BD150496588BAF
:10BC7A008127F436CE12B1BD11C4BD1305CE00A37F
:10BC8A00BD11B98DA7CE17478D177F00BB32BD13E3
:10BC9A007139DFBDBD144E8D058D08CE00A37E130C
:10BCAA0008DFBDBD1449DEBDE600D7B408DFBD8D8F
:10BCBA00EDDEBD08080808DFBDBD11C4CE00A77AB5
:10BCCA0000B426EB399835447A6828B146BD148306
:10BCDA00172B14CE010DBD14384D27E8CE17D48D7D
:10BCEA00BDCE17D8BD11C4D6B296B097B2D7B07F21
:10BCFA0000B396AF97BC868097AFBD1215CE010DE3
:10BD0A007E1454CE1881BD11C4BD1476CE1885D6C2
:10BD1A00BABD13B7BD1476BD15047F00BB96B6D65F
:10BD2A00AFBD11BCCE1889BD11B996B3362A0ABD6A
:10BD3A0011B496B32B06730060BD173BCE1889BDAC
:10BD4A0011C4324D2A03BD173BCE188D7E17A1BDF3
:10BD5A00144E7F00608DB2CE00AB8DA4CE00A3BD81
:10BD6A0014387F00B396608D06CE00AB7E13BC36C6
:10BD7A0020C781490FDB83490FDB7F00000004865F
:10BD8A001ED7BA879926648723345886A55DE0832F
:10BD9A00490FDA96B3362A028D2096AF368181256D
:10BDAA0005CE12B18DC6CE18CD8DA1328181250660
:10BDBA00CE1881BD11B9324D2A037E173B39087856
:10BDCA003BD74A7B846E027C2FC1FE7D9A31747DFB
:10BDDA005A3D847E917FC87E4CBBE47FAAAA6C81BF
:10BDEA0000000000CE1A1FBD0879CEFFFFDF8A8E41
:10BDFA001B1B9F827F0111BD0834CE0065DF61CE17
:10BE0A001AAABD0879BD08F9DFC8BD00BF8141275C
:10BE1A00D34D2615CE1AB7088637A700A1002617D4
:10BE2A004AA700A10027F0200EBD00C7BD07674D35
:10BE3A0027037E0B49DE8E09DF88DF84CE1A43BDD5
:10BE4A000879BD08F9DFC8BD00BF16271CBD076702
:10BE5A00968E26E8968F811025E2970C800E24FC98
:10BE6A0040800E9B0C970D20088648970C863897C1
:10BE7A000DC6CE86FFDB89998825037E031197823A
:10BE8A00D783CE1A0ABD0879BD08F9DFC8BD00BF3D
:10BE9A00CE18F28159272481412704814E26E3CE08
:10BEAA000D4CFF0133CE18A28141270FCE0D4CFF56
:10BEBA00012DFF0131FF012FCE18124FA70008DF15
:10BECA007ADE822B058C1B1B2BB1DF82967AD67BFE
:10BEDA00BD02F0BD0834D683D07B9682927ABD1516
:10BEEA00E0CE1A52BD0879CE0879FF0113BD04E4E9
:10BEFA0086BD9704CE0500DF057E033C57414E54AC
:10BF0A002053494E2D434F532D54414E2D4154CE6B
:10BF1A00000D0A0C5752495454454E20425920529A
:10BF2A0049434841524420572E205745494C414ED7
:10BF3A0044AE0D0A005445524D494E414C205749D2
:10BF4A004454C80020425954455320465245C50D11
:10BF5A000A0D0A4D49545320414C54414952203646
:10BF6A0038302042415349432056455253494F4E97
:10BF7A0020312E312052455620332EB20D0A434F1E
:10BF8A0050595249474854203139373620425920AE
:10BF9A004D49545320494E43AE0D0A004D454D4F6D
:10BFAA0052592053495AC500002049532049542068
:10BFBA0052455455524E0D20424551204F55540D6D
:10BFCA002042524120494E54415045204745542071
:10BFDA004E455854204348415241435445520D203E
:10BFEA00454E440D4D505520696E697420646F6E3C
:05BFFA00650D0A0000C6
:10C00000FFFFFFFFFFFFFFFFFFFFFFFFFFFFFFFF40
:10C01000FFFFFFFFFFFFFFFFFFFFFFFFFFFFFFFF30
:10C02000FFFFFFFFFFFFFFFFFFFFFFFFFFFFFFFF20
:10C03000FFFFFFFFFFFFFFFFFFFFFFFFFFFFFFFF10
:10E00000FE2F006E00FE2F066E00860D8D670186C6
:10E010000A8D628D63815326FA8D5D8139272581B2
:10E020003126F07F2F0A8D2D8002B72F0B8D188D92
:10E03000247A2F0B2705A7000820F47C2F0A27D36A
:10E04000863F8D317EE0E38D0CB72F0C8D07B72F07
:10E050000DFE2F0C398D5348484848168D4C1B1621
:10E06000FB2F0AF72F0A3944444444840F8B308134
:10E070003923028B077EE1D17EE1AC8DF808A60042
:10E08000810426F7398DC0CEE19D8DF2CE2F0C8D07
:10E0900037FE2F0C8D34FF2F0C8DDD812026E88D6F
:10E0A000B409A700A10027DF20968DCC80302B94E7
:10E0B00081092F0A81112B8C81162E88800739A6A1
:10E0C000008DA4A6000820A38DF58DF3862020A541
:10E0D0008E2F42BF2F088603B780180101018615D5
:10E0E000B780188E2F42CEE19D8D938D8B168DDCDF
:10E0F000C14C26037EE00AC14D278AC1522720C1A8
:10E1000050273AC14726DCBE2F083B01010101011F
:10E11000010101BF2F08306D0626026A056A06FE5E
:10E120002F08088DA58DA38DA18D9D8D9BCE2F08C9
:10E130008D9620AF0D0A53310401010101FE2F021B
:10E14000FF2F0FB62F05B02F10F62F04F22F0F263A
:10E150000481102502860F8B04B72F118003B72F7F
:10E160000ECEE134BDE07E5FCE2F118D25CE2F0F78
:10E170008D208D1EFE2F0F8D197A2F0E26F9FF2F61
:10E180000F5337308D0C33FE2F0F09BC2F0426B3ED
:10E1900020A0EB007EE0BF0101010101010D0A2A70
:10E1A0000401010101FF2F12390101018DF7B68031
:10E1B000184724FAB68019847F817F27F18D1239A0
:10E1C000010101010101010101010101010101013F
:10E1D0000136B68018474724F932B7801939FFFF56
:10E1E000FFFFFFFFFFFFFFFFFFFFFFFFFFFFFFFF3F
:10E1F000FFFFFFFFFFFFFFFFFFFFFFFFFFFFFFFF2F
:10E20000FFFFFFFFFFFFFFFFFFFFFFFFFFFFFFFF1E
:10E21000FFFFFFFFFFFFFFFFFFFFFFFFFFFFFFFF0E
:10E22000FFFFFFFFFFFFFFFFFFFFFFFFFFFFFFFFFE
:10E23000FFFFFFFFFFFFFFFFFFFFFFFFFFFFFFFFEE
:10E24000FFFFFFFFFFFFFFFFFFFFFFFFFFFFFFFFDE
:10E25000FFFFFFFFFFFFFFFFFFFFFFFFFFFFFFFFCE
:10E26000FFFFFFFFFFFFFFFFFFFFFFFFFFFFFFFFBE
:10E27000FFFFFFFFFFFFFFFFFFFFFFFFFFFFFFFFAE
:10E28000F6801857398DF924FCF68019398DF1572D
:10E2900024FB847FB7801939FFFFFFFFFFFFFFFFDB
:10E2A000FFFFFFFFFFFFFFFFFFFFFFFFFFFFFFFF7E
:10E2B000FFFFFFFFFFFFFFFFFFFFFFFFFFFFFFFF6E
:10E2C000FFFFFFFFFFFFFFFFFFFFFFFFFFFFFFFF5E
:10E2D000FFFFFFFFFFFFFFFFFFFFFFFFFFFFFFFF4E
:10FFF000FFFFFFFFFFFFFFFFE000E113E005E0D0A0
:020000040001F9
:100000002BEF85F0CFC4F6F4D1C4F7F4D793375073
:100010003810D8B40EEF80F010EF80F01AEF80F0B7
:10002000050ED56FD787D797010ED56F000E386EA6
:10003000000E376EAE9ACEAA20EF80F022EF80F04D
:1000400025EF81F0C86A300EF76029EF80F02BEFC2
:1000500080F034EF80F0CF50E96E100ED124EA6EBC
:10006000EF50C06E21EF81F0BF0EF7643AEF80F0E1
:100070003CEF80F046EF80F0CF50F66ED150F76E37
:10008000F86A0800F550C06E21EF81F0800EF71875
:10009000D8A44DEF80F04FEF80F062EF80F0190EA2
:1000A000F618D8A456EF80F058EF80F05CEF80F09F
:1000B000C7C2C0F421EF81F0B7C4C0F421EF81F0D2
:1000C00021EF81F0A00EF718D8A469EF80F06BEF54
:1000D00080F0E4EF80F01F0EF618D8A472EF80F0E5
:1000E00074EF80F07CEF80F0050ED56FD787D7973F
:1000F000010ED56F21EF81F0070EF618D8A483EF1B
:1001000080F085EF80F089EF80F087C3C0F421EFA5
:1001100081F0080EF618D8A490EF80F092EF80F0EE
:1001200096EF80F088C3C0F421EF81F00A0EF61834
:10013000D8A49DEF80F09FEF80F0A3EF80F08AC3FA
:10014000C0F421EF81F00C0EF618D8A4AAEF80F0CD
:10015000ACEF80F0B0EF80F08BC3C0F421EF81F002
:100160000B0EF618D8A4B7EF80F0B9EF80F0BDEF12
:1001700080F08CC3C0F421EF81F00E0EF618D8A4E5
:10018000C4EF80F0C6EF80F0CAEF80F08DC3C0F4FA
:1001900021EF81F00D0EF618D8A4D1EF80F0D3EF47
:1001A00080F0D7EF80F08EC3C0F421EF81F00F0E06
:1001B000F618D8A4DEEF80F0E0EF80F060EF80F07A
:1001C0008FC3C0F421EF81F0B00EF718D8A4EBEF85
:1001D00080F0EDEF80F060EF80F0F650D8A4F3EF00
:1001E00080F0F5EF80F0FAEF80F06100ACF4C0F43D
:1001F00021EF81F0F604D8A400EF81F002EF81F046
:1002000007EF81F06100B0F4C0F421EF81F0020E3D
:10021000F618D8A40EEF81F010EF81F015EF81F001
:100220006100B4F4C0F421EF81F0030EF618D8A4F5
:100230001CEF81F01EEF81F060EF80F06100B8F4F8
:10024000C0F4D783C8682EEF82F0300EF7602BEF32
:1002500081F02DEF81F038EF81F0CF50E96E100E74
:10026000D124EA6ECEA0FED7D050EF6E2DEF82F0F3
:10027000800EF718D8A43FEF81F041EF81F052EFE4
:1002800081F0190EF618D8A448EF81F04AEF81F0FA
:100290002DEF82F0CEA0FED7D0C4C9F22DEF82F0B0
:1002A0002DEF82F0A00EF718D8A459EF81F05BEF84
:1002B00081F0D3EF81F0070EF618D8A462EF81F039
:1002C00064EF81F06AEF81F0CEA0FED7D0C487F34F
:1002D0002DEF82F0080EF618D8A471EF81F073EFBD
:1002E00081F079EF81F0CEA0FED7D0C488F32DEF56
:1002F00082F00A0EF618D8A480EF81F082EF81F028
:1003000088EF81F0CEA0FED7D0C48AF32DEF82F023
:100310000B0EF618D8A48FEF81F091EF81F097EFD4
:1003200081F0CEA0FED7D0C48CF32DEF82F00C0E5E
:10033000F618D8A49EEF81F0A0EF81F0A6EF81F02F
:10034000CEA0FED7D0C48BF32DEF82F00D0EF618A1
:10035000D8A4ADEF81F0AFEF81F0B5EF81F0CEA082
:10036000FED7D0C48EF32DEF82F00E0EF618D8A46F
:10037000BCEF81F0BEEF81F0C4EF81F0CEA0FED7DC
:10038000D0C48DF32DEF82F00F0EF618D8A4CBEF6A
:1003900081F0CDEF81F050EF81F0CEA0FED7D0C438
:1003A0008FF32DEF82F0B00EF718D8A4DAEF81F0BA
:1003B000DCEF81F02DEF82F0F650D8A4E2EF81F06F
:1003C000E4EF81F0EBEF81F0CEA0FED7610040F3C7
:1003D00027F52DEF82F0F604D8A4F1EF81F0F3EFCA
:1003E00081F0FAEF81F0CEA0FED7610040F328F54E
:1003F0002DEF82F0020EF618D8A401EF82F003EF81
:1004000082F00AEF82F0CEA0FED7610040F329F51A
:100410002DEF82F0030EF618D8A411EF82F013EF3F
:1004200082F01AEF82F0CEA0FED7610040F32AF5E9
:100430002DEF82F0100EF618D8A421EF82F023EFF2
:1004400082F050EF81F0CEA0FED72AC52EF529C547
:100450002DF528C52CF527C52BF5D7831100610094
:1004600038F4D9F461003CF4DAF4DEC4F6F4DDC407
:10047000F7F4000EF86E0800F550250AD8A443EFF3
:1004800082F045EF82F096EF82F0610038F4D9F403
:1004900061003CF4DAF4DE2A000EDD22000E326E3A
:1004A000000E316E31C535F532C536F53368346826
:1004B000610038F4D9F461003CF4DAF4DEC4F6F4F7
:1004C000DDC4F7F4000EF86E0800F550250AD8A434
:1004D0006CEF82F06EEF82F087EF82F0610038F40B
:1004E000D9F461003CF4DAF4DE2A000EDD22000EBD
:1004F000046E250E036E0CC505F50DC506F58CECD6
:1005000083F0000E0D6E010E0C6EB7EF82F06100ED
:1005100038F4D9F461003CF4DAF4DE2A000EDD226E
:10052000000E0D6E000E0C6EB7EF82F0610038F415
:10053000D9F461003CF4DAF4DEC4F6F4DDC4F7F477
:10054000000EF86E0800F550036E046A0CC505F540
:100550000DC506F58CEC83F0610038F4D9F4610028
:100560003CF4DAF4DE2A000EDD2281EF82F0120084
:1005700041EC85F0C290C868050E0001D56F050EEC
:10058000E82EFED700F00001D787050EE82EFED733
:1005900000F00001D797010ED56FD795050EE82E14
:1005A000FED700F00001D785050EE82EFED700F03B
:1005B0000001D795050EE82EFED700F00001D78385
:1005C000D7EC83F07BEC84F0000E6100A3F348FFCE
:1005D000000E6100A3F349FFD68EEE0E1A6EBF0E19
:1005E0001B6E6AEC85F01A0EE82EFED700D0C28092
:1005F0000001D4BBFEEF82F000EF83F0F8EF82F051
:10060000000E386E010E376E6A0EE82EFED700D04F
:100610002B2A0A0E2B18D8A410EF83F012EF83F0C8
:10062000F8EF82F0000E2B6E2C2A3C0E2C18D8A46A
:100630001CEF83F01EEF83F0F8EF82F0000E2C6EBB
:100640002D2A3C0E2D18D8A428EF83F02AEF83F032
:10065000F8EF82F0000E2D6E2E2A180E2E18D8A458
:1006600034EF83F036EF83F03AEF83F0000E2E6E16
:10067000F8EF82F0F8EF82F000EF80F0000EC26E2B
:10068000000EC16E000EBE6E000EBF6E000EC06E7C
:10069000060ECA6EA30EC66EC768C868C968000E8B
:1006A0000401186F000E106F000E086F070E206F08
:1006B000400E006F000E196F000E216F000E096FC3
:1006C000000E016F000E116F000E226F000E026F00
:1006D000000E0A6F000E126F000E1A6F03690B698D
:1006E00013691B69070E236F04690C6914691C697F
:1006F0000F0E246F000E02014B6F060E056F000EE9
:10070000616F3F0E046F260E076F010E626F020EBF
:10071000036F070E766F120005500610D8B493EFE2
:1007200083F095EF83F09EEF83F005500610D8A478
:100730009CEF83F09EEF83F0A3EF83F00350BDECBA
:1007400085F0D6EF83F020EE09F00550D92606504B
:10075000DA22DE50DE10D8B4B0EF83F0B2EF83F0CF
:10076000CDEF83F020EE09F00550D9260650DA22AD
:1007700010EE03F00550E1260650E222DE50E65C62
:10078000E650800A0B6EDE50800A0B58D8B0CBEFD3
:1007900083F0CDEF83F0D6EF83F020EE03F0055029
:1007A000D9260650DA22DE2A000EDD221200000EC3
:1007B000026E000E016E2B0E0124D96E050E022072
:1007C000DA6E000EDF6E270E0124D96E050E0220B0
:1007D000DA6E000EDF6E230E0124D96E050E0220A4
:1007E000DA6E000EDF6E014A022A02BE01EF84F0CB
:1007F000025009E1040E015CD8A001EF84F003EF80
:1008000084F0DBEF83F0040E2B6E000E386E000ECA
:10081000376E000E03018A6F0C0E8E6F350E8D6FD2
:1008200087518009876F1200000E0201CB6F000E06
:10083000CD6F000ECF6FB00ED16F800ED26F000E55
:10084000D36F820ED46F060ED56F000ED66F000EDA
:10085000D76F000ED86F000ED96F000E016E000E1C
:10086000026E000E036EAFEC85F0000E016E000EFE
:10087000026E000E036EA8EC85F0000E016E000EF5
:10088000026E000E036EB6EC85F0000E396E12009B
:1008900014C518F515C519F5000E306E000E2F6E33
:1008A00064EF84F012C50CF513C50DF5180E0E6E2D
:1008B000050E0F6E16C510F517C511F52FEC82F059
:1008C0000C502F260D503022610060F4F6F46100C8
:1008D00064F4F7F4000EF86E0800F5500009D8A48F
:1008E00074EF84F076EF84F052EF84F02FC512F5A8
:1008F00030C513F51200000E026E000E016EFB0EE5
:100900000124F66EA40E0220F76EF86A000EF8229B
:10091000000E0124D96E100E0220DA6E0800F5C414
:10092000DFF4014A022A02BE9FEF84F0F30E015C5D
:100930001A0E0258D8A09FEF84F0A1EF84F07FEF49
:1009400084F01200D68A000ED6BE010E016ED69E2D
:10095000550E0401596FAA0E596F5991000E5F6F21
:10096000000E5E6F080E5D6F550E596FAA0E596F1F
:10097000598101B002D0D69E01D0D68E0301628B80
:100980001200000E0001D56F010ED76F000ED86F58
:10099000010ED96F000EDA6F000EDB6F020EDC6FF6
:1009A000080EDD6F000EDE6F000EDF6F000ED46FDD
:1009B000900ED66FAE9A9E8A12000301879F000E9A
:1009C000886F0C0E896F060E8F6F000E906F000EF1
:1009D0008A6F3D0E8E6F090E8D6F000E8C6F000EAC
:1009E0008B6F000EBB6F9E98100E876F1200050E66
:1009F0000001D56F010ED76F190ED86F000ED96F99
:100A0000000EDA6F000EDB6F020EDC6F000EDD6F82
:100A1000000EDE6F000EDF6F000ED46F840ED66FF7
:100A20001200010E0001D56F010ED76F2A0ED86F8C
:100A3000000ED96F000EDA6F2A0EDB6F800EDC6FAE
:100A4000000EDD6F000EDE6F000EDF6F000ED46F44
:100A5000850ED66F120001EE60F1200EEE6AE806F8
:100A6000FDE101EE23F1170EEE6AE806FDE1040157
:100A7000080E5D6F000E5E6F000E5F6F0001B8EF35
:100A800082F0A2EC84F056EC85F0DDEC84F03EECD4
:100A900083F09CEC85F0C1EC84F0F7EC84F07DEC05
:100AA00085F011EC85F014EC84F01200000E0001CA
:100AB000606F000E616F000E626F000E636F000EBC
:100AC000646F000E656F000E666F000E676F000E9C
:100AD000686F12001C0E1C6E050E1D6E000E126E4D
:100AE000000E136E1AC514F51BC515F51C0E166EF7
:100AF000050E176E48EC84F01200000E0401466FDC
:100B0000010E476F000E426F000E416F000E406FE6
:100B1000010E456F260E446F660E436F468F12001E
:100B2000016EB7A296EF85F098EF85F091EF85F012
:100B3000610004F4C9F21200600E0001AD6F000EF6
:100B4000AF6F010EB36F080EB16F000EB06F1200E1
:100B500001C53DF502C53EF503C53FF5120001C5CF
:100B600040F502C541F503C542F5120001C53AF54D
:100B700002C53BF503C53CF51200026E025090EC35
:060B800085F012001100D7
:020000040020DA
:10000000FF0FFF0FFF0FFF0FFF0FFF0FFF0FFF0F80
:10001000FF0FFF0FFF0FFF0FFF0FFF0FFF0FFF0F70
:10002000FF0FFF0FFF0FFF0FFF0FFF0FFF0FFF0F60
:10003000FF0FFF0FFF0FFF0FFF0FFF0FFF0FFF0F50
:020000040030CA
:100000008C2FFFFF9FFFFFFFFFFFFFFFFFFFFFFFA3
:10001000FFFFFFFFFFFFFFFFFFFFFFFFFFFFFFFFF0
:04002000FFFFFFFFE0
:00000001FF
