:020000040000FA
:200000000D7600F37E18F97E033C00004838002C0000000000000000000000000000000072
:200020000000000000000000000000000000000000000000000000000000000000000000C0
:200040000000000000000000000000000000000000000000000000000000000000000000A0
:20006000000000000000000000000000000000000000000000000000000000000000000080
:20008000000000000000000000000000000000000000000000000000000000000000000060
:2000A000000000000000000000000000000000000000000000000000000000000000007CC4
:2000C00000C926037C00C8B6EA60813A2408812027ED803080D039FFEA607E03C700000084
:2000E00006060606060604FFFDFFFDFFFFFFFDFDFFFDFD00FDFFFDFDFDFFFDFFFF6460FD42
:2001000000000000000000000000000000804FC752007E18F90CD80E341490150414AA0DBA
:200120004C0E150E4016FC17DC12D2176818121818185E18A2118D10A90EF1114A10C91076
:20014000B510D110EE10F57911C77911BC7B130A7B13BE7F1705500B96460B95454EC4467C
:200160004FD24E4558D4444154C1494E5055D44449CD524541C44C45D4474F54CF5255CE6C
:2001800049C6524553544F52C5474F5355C25245545552CE5245CD53544FD04FCE4E554C16
:2001A000CC574149D44445C6504F4BC55052494ED4434F4ED44C4953D4434C4541D24E45C9
:2001C000D7544142A854CF46CE535043A8544845CE4E4FD4535445D0ABADAAAFDE414EC446
:2001E0004FD2BEBDBC5347CE494ED44142D35553D24652C5504FD35351D2524EC44C4FC7F9
:200200004558D0434FD35349CE5441CE4154CE504545CB4C45CE535452A45641CC4153C381
:20022000434852A44C454654A45249474854A44D4944A400062E056509B3070608DA0C2059
:200240000900079106C906A30727061206AD06E0073A062D07470664119B0E4F119407FACB
:2002600006520514067504E24EC653CE52C74FC446C34FD64FCD55D342D344C42FB049C4D0
:2002800054CD4FD34CD353D443CE55C6204552524FD20020494EA0000D0A4FCB0D0A000DD3
:2002A0000A42524541CB003008080808C610DF71A60080812614EE01DF73DE9E27089C73FD
:2002C00027088D4220E6DE73DF9EDE714D398D2007369F780F9EA3DEA50809A600369CA971
:2002E00026F8319FA79E783206394F58DB819980CB268900251B9F78917825062213D17942
:20030000220F394FDF71DB7299719773D774DE7339C60CBD05007F0111BD0834BD0893CE5A
:2003200002688DDFA600BD0895A601BD0895CE028BBD0879DE8A082703BD15D77F0111CEAB
:200340000297BD0112862C970FBD03ECDFC8BD00BF27F2250BCEFFFFDF8ABD042E7E05EF2E
:20036000BD0767DE8EDF0EBD042ED75ABD04C42522D6AAE00186FFDB7D997C977CD77D074C
:20038000369F780FAE003432A700089C7C26F89E7832069610272B967CD67D97A5D7A6DBC9
:2003A0005A890097A3D7A4BD02CE07369F780F8E000B32A700089CA726F89E783207DEA30A
:2003C000DF7CBD04EEDE7AA600AA0126037E0345DFD80808080808A60026FB087E00D7BDBB
:2003E0000895095A260BBD0895BD0834CE0010C6018D2B81072714810D2720812025F2814B
:200400007D24EE814027DF815F27D4A700C1482403085C8C8607BD089520D67E082F37BD5E
:20042000FF001733847F810F2603730111397F005D7A00C9CE000FDFBD9F7807975F010F3D
:200440009EC833C1202732D759C1222755965D2628C13F2604C6952020C1302504C13C25F8
:2004600018CE015B9EC85F0832812027FBA00027F681802632CA80DEBD9FC89E78965F0605
:2004800008DFBDE700272FC03A2704C1492602D75DC05426A9D7590F9EC8335D27DBD159AC
:2004A00027D708E70020F39EC85CA600082AFBA60026B53320C1E701E702D6BEC00BCE0014
:2004C0000FDFC839968EDE7AE600EA012710A1022208250BD68FE1032305EE0020EA0DDF57
:2004E000A93926FBDE7A6F00086F0008DF7CDE7A09DFC8DE88DF84BD0612DE7CDF7EDF809C
:20050000CE0065DF6130EE009E824F3697909791975E6E0022ADBD076726A832328DA5A6EF
:2005200000AA0126037E033CBD0618BD0834A602E60308080808DF71BD15E08620DE71BDF1
:200540000895A600084D27D72AF5807FDF71CE015C4A2707E600082AFB20F6A6002BDE0814
:20056000BD089520F68680975EBD0791BD02A731312604BD030635C608BD02EABD070BDFA9
:2005800071D67237D67137D68B37D68A37C69BBD0B3FBD0A0DBD0A0BD6B3CA7FD4B0D7B0D3
:2005A000CE05A67E0AABCE12B1BD1438BD00C781A02606BD00BFBD0A0BBD1483BD0AA5D640
:2005C0009F37D69E378681368D4EDEC8DF92A6002707813A27197E0B4908A60008AA000C5E
:2005E00007275408A600978A08A600978BDFC8BD00BF8D0220D2276B808024037E079181E6
:200600001A24D34816CE0234BD0303EE00BD00BF6E00DE7A09DF9639BDFF2424FABD041EE0
:2006200036B6F0028402322702860381030D263307DEC8DF923131DE8A08270709DF8CDE18
:2006400092DF907F0111CE029E0624037E03317E033C260FC620DE9026037E0313DFC8DE33
:200660008CDF8A39BD113B26FA5CD10C24045AD70A397E0D4C2729BD0CD1BD00C726E49669
:2006800088D689D0B292B12514DE829782D783C02882002506D07D927C2405DF827E031196
:2006A0007E04F326037E04EEBD04F32014C603BD02EAD6C937D6C837D68B37D68A37868CE6
:2006C00036BD00C78D037E05C8BD07678D4008968E918A2202DE7ABD04C8251509DFC8391E
:2006E00026FD86FF979EBD02A735810B270BC6048CC60E7E03137E0B493233D78A33D78BD9
:2007000033D7C833D7C98D03DFC839C63A865FD7585FDEC817D6589758A60027ED1127EA9B
:2007200008812227EF20F2BD0A19BD00C781882705C69EBD0B3F96AF26058DD2DFC839BD76
:2007400000C725857E05F6BD113B36818C2704818826A37A00B22604327E05F8BD00BF8D5A
:2007600006812C27EE3139CE0000DF8E24F880309758968ED68F811822D758495849DB8F8A
:20078000998E5849DB588900978ED78FBD00BF20DBBD0C29DF9EC6A9BD0B3F965C36BD0AFF
:2007A000193246BD0A0F2749DEB19682A10222232506D683E103241B967C91B12215250676
:2007C000D67CD1B2220DE600BD0F01DEADBD105FCE00AFDFADBD109B07369F780FDEAD3517
:2007E000DE9E32A7003232A70232A7039E783206397E1452BD087CBD00C72738274E819A9C
:20080000275C819D2758812C2743813B2766BD0A19DEB1965C26DDBD15EFBD0F0ADEB19638
:200820000BAB00910C23028D0B8D518D6320C86F00CE000F860D970B8D5B860A8D5737D608
:200840000A27064F8D4F5A26FBD70B3339D60BD10D25048DDF201DC00E24FC50201136BD7A
:2008600011388129266732819D2704D00B23058D1F5A26FBBD00BF2083BD0F0BBD107D5CB7
:200880005A27C9A6008D0E08810D26F48DB020F086208C863F7D01112617368120250B9670
:2008A0000B910C26028D8D4C970B323716BDFF8133393F5245444F2046524F4D2053544173
:2008C00052D40D0A00965F2707DE94DF8A7E0B49CE08B18DA4DE92DFC8397F0111812226A9
:2008E0000ABD0B0AC63BBD0B3F8D91BD0E458D099610260F0C077E06358D988D937E03ECF7
:20090000DE96864F975FDF98BD0C29DF9EDEC8DF8EDE98A6002609965F264EBD08938DD92D
:20092000DFC8BD00BFD65C271CDEC897588122270709863A9758862C9759BD0F11BD116C48
:20094000BD07A82006BD1526BD1452BD00C72707812C27037E08C5DEC8DF98DE8EDFC8BD29
:2009600000C7272ABD0B3D209FDFC8BD070B4D2614A601C606AA02274DA6039794A60497F6
:20098000950808080808A600818326DD2092DE98D65F27037E0615A6002706CE09A17E08FC
:2009A00079393F45585452412049474E4F5245C40D0A002605CE00002003BD0C29DF9EBDBB
:2009C00002A72704C600204E35080808DF71BD143830A60797B3DE9EBD11C4BD1452DE71C2
:2009E0000808080808BD14AE30E007270CEE0CDF8A30EE0EDFC87E05C8C610BD030335BDFA
:200A000000C7812C26F0BD00BF8DAF8D0C6D0D76005C288DC6187E0313DEC809DFC84FC61D
:200A20003736C601BD02EABD0AEB7F00A2BD00C780A825148103241081014998A291A2250C
:200A40005D97A2BD00BF20E8D6A2262D246B8B072467995C26037E102589FF16481B16CE4F
:200A60000147BD030332A10024568DA1368D23DEA03226184D2771205078005C59DEC809EB
:200A8000DFC8CE0A89D7A220DC640BBCA100243920DAA60236A601368D07D6A220827E0BC4
:200AA00049D6B3A60030EE00313137D6B237D6B137D6B037D6AF376E00CE0000324D272807
:200AC00081642703BD0A0DDFA033815A271C817D271854D7603297B633D7B733D7B833D78F
:200AE000B933D7BAD8B3D7BBD6AF397F005C8D5624037E1526BD0C85245C812E27F481A245
:200B0000274C81A127E881222608DEC8BD0F0B7E116C819F2611865ABD0A20BD0CD896B1E2
:200B2000D6B243537E0E34819C26037E0E8D80AB24308D06BD0A19C6298CC6288CC62CDEC1
:200B4000C8A6001126037E00BFC6027E0313867DBD0A207E173BBD0C29DFB1965C268B7EF7
:200B6000143816588DE037C127251A8DCDBD0A198DCBBD0A0E32D6B237D6B13736BD113B9B
:200B800032371620038DAB33CE0119BD0303EE00AD007E0A0D864F975ABD0CD8DEB1DF5840
:200BA000BD1469BD0CD89658D6597D005A260694B1D4B220049AB1DAB27E0E34BD0A0F26B8
:200BC0001096BA8A7F94B797B7CE00B6BD14AE20407F005C7A00A2BD107DD7AFDFB1DEB8C3
:200BE000BD107F96AF10270786012403D6AF4097B307369F780F35DEB15C095A2604D6B3D0
:200C0000200B3208A10027F3C6FF2401509E783206CB0159D4602702C6FF7E1492BD0B3DBC
:200C2000168D0ABD00C726F5395FBD00C7D75B979ABD00C78D4F24037E0B495FD75CBD0041
:200C4000BF25048D40250A16BD00BF25FB8D3624F78124260873005CCB80BD00BFD79B9BAA
:200C60005E802826037E0CE97F005EDE7C969AD69B9C7E2719A1002604E10127480808086C
:200C800008080820EC81412504805B80A5393236810B2604CE0D0539DE80DFA5C606BD0367
:200CA00003DFA3DE7EDFA9BD02CEDEA3DF80DEA7DF7EDEA9969AD69BA700E7014FA702A726
:200CC00003A704A7050808DF9C3990800000BD00BFBD0A0B96B32B7496AF81902508CE0C53
:200CE000CABD14AE26667E14DA965B36965C365F37D69B37D69A378DD533D79A33D79B33A1
:200D000030A60136A6003696B1A70096B2A7015CBD00C7812C27D9D75ABD0B3732975C32F8
:200D2000975BDE7E9C802729969AA1002606969BA1012709A602E603BD030420E7C612962F
:200D40005B260BD65AE1042767C6108CC6087E0313860497BE7F00BD969AA700969BA701D5
:200D6000D65AE704BD02EADFA3C60B4F7D005B27063233CB018900A705E7068D6F97BDD78E
:200D8000BE08087A005A26E1BD030425BCBD02F0C02182009780D7814F09A7059C7126F954
:200DA000DEA39680D0A4E70392A3A702965B263BE604D75A4F5F97BDD7BE3297B133D7B226
:200DC000A1052506224CE106244896BE9ABD0C27048D19DBB299B108087A005A26D858499F
:200DE0005849CB058900BD0304DF9C39861097A7A6059778A60697794F5F58492514780037
:200E0000BE7900BD2406DB79997825067A00A726E9397E0D499F789678D679CE00807D00A8
:200E20005C270DBD107DBD0F86CE00829684D685E001A2007F005C97B0D7B1C6907E149913
:200E4000D60B4F20EFDE8A0826A1C6167E03138D298DF2BD0B3AC680D75EBD0C298D2BBD93
:200E60000B37C6A9BD0B3FDEAB96C8D6C9A700E701969CD69D8D757E0706C69CBD0B3FC644
:200E800080D75E8A80BD0C2FDFAB7E0A0D8DEBD6AC37D6AB37BD0B328DF033D7AB33D7ACB1
:200EA000DEABC622EE0227A4DF9CA60336A60236A60136A60036BD1454DEABD6C937D6C8F3
:200EC00037EE00DFC8D69D37D69C37BD0A0B33D79C33D79DBD00C727037E0B4933D7C8334F
:200EE000D7C9DE9C32A70032A7013233A702E70339BD0A0DCE00FFBD15F23131CE00FE2041
:200F00000ADFAD8D53DFB1D7AF390986229758975908DFBBDFB1C6FF5CA600270E0891585D
:200F20002704915926F28122270109DFBDD7AF96BB26078DCCDEBBBD1061DE618C0071268E
:200F400005C61E7E0313BD145486FF975CDF63DFB108080808DF61397F005D375386FFD948
:200F6000859984918225112204D183250B9784D785DE8408DF863339C61A965D26C58D06D9
:200F800073005D3320D5DE88DF84CE0000DFABDE82DFA9CE00659C6127048D3B20F8DE7CBB
:200FA0009C7E27048D2B20F8DFA3DEA39C80274EA602E603DBA499A397A3D7A4A6012AEACC
:200FC000E6044F58CB05BD03049CA327DF8D0820F8A60108082A22E600271EA602918422ED
:200FE00018E6032504D185241091A9250C2204D1AA2306DFAB97A9D7AA0808080839DEABDB
:2010000027FB4FE6005ADBAA99A997A5D7A6DE84DFA3BD02D0DEAB96A7D6A8A702E703DE77
:20102000A7097E0F8896B23696B136BD0AEBBD0A0E3297BB3297BCDEBBE600DEB1EB002443
:2010400005C61C7E0313BD0F01DEBBE6008D10DEAD8D2C8D0CDEBB8D26BD0F3A7E0A2DEE5A
:201060000207369F780F35DE865C200432A700085A26F9DF869E78320639BD0A0EDEB1E662
:20108000008D182613EE06099C84260A37DB8599849784D785330839EE02399C632609DF50
:2010A0006109090909DF634F398D037E0E428DCA7F005C5D39BD113EC601BD0F5896B2BDBF
:2010C0000F05A70031317E0F3A8DE32768E60020DA8D454FE1002303E6004F3736BD0F03B4
:2010E000DEAD8D9B33BD030333BD106120D88D28A6001020DFC6FFD7B28D4C81292705BDCA
:201100000B3D8D378D125F4AA10024CF16E00050D1B223C7D6B220C3BD0B3733D77833D73E
:201120007931313233D7AD33D7AEDEADD67937D6783716263B7E0D4CBD00BFBD0A0BBD0C38
:20114000D496B126F0D6B27E00C7BD10AE26037E122FBD0303A600366F00DEC8DFBDDE718F
:20116000DFC88DE3BD152632DE73A700DEBDDFC839BD0A0B8D07DF8EBD0B3D20BE96B32B91
:20118000B496AF819022AEBD14DADEB1398DEEE6007E0E428DDBDE8EE700398DD4D79E5FAA
:2011A000BD00C727028DD1D79FDE8EA600989F949E27F839CE16E6200BBD13557300B37328
:2011C00000BB2003BD13555D26037E1469CE00B6162761D0AF275E2B0A97AF96BA97B3CE82
:2011E00000AF50C1F82F4E4F6401BD12A8D6BB2A0963016302630343890097BC96B299B9E3
:2012000097B296B199B897B196B099B797B0172A4025028D585F96B0262D96B197B096B26D
:2012200097B196BC97B27F00BCCB08C1202DE74F97AF97B3398D650C20B35C7800BC7900D6
:20124000B27900B17900B02AF196AF1097AF23DF8C25057800BC200E7C00AF27277600B01A
:201260007600B17600B224048D0F27EC397300B37300B07300B17300B2DEB108DFB126032D
:201280007C00B039C60A7E0313CE0074A60397BCA602A703A601A70296B5A701CB082FECC4
:2012A00096BCC008270A670166026603465C26F6398100000002801956AA807622F18238D4
:2012C000AA45803504F3813504F38080000080317218BD14832E037E0D4CCE12C296AF80C8
:2012E0008036868097AFBD11C4CE12C6BD13BCCE12B1BD11B9CE12B5BD17A1CE12CABD118E
:20130000C433BD15B1CE12CE8D4B27488D638600977597769777D6B28D0ED6B18D0AD6B0FA
:201320008D0BBD142F7E121526037E12890D9675562721241096779BB99777967699B897E1
:2013400076967599B74697757600767600777600BC0C20DA39A60197BA168A8097B7D8B32F
:20136000D7BBA60297B8A60397B9A60097B6D6AF394D27199BAF464928138B8097AF26031F
:201380007E123296BB97B33996B343200232322B037E122F7E1284BD1476270F8B0225F481
:2013A0007F00BBBD11D07C00AF27E93984200000BD1476CE13AC5FD7BB8D7D8C8D97276A2D
:2013C0007000AF8DAC7C00AF27CACE0075C603D75AC60196B091B7260D96B191B826079681
:2013E000B291B926010D0759240CE700087A005A2B2E2728C60106250F7800B97900B879E6
:2014000000B725E22BCD20DE96B990B297B996B892B197B896B792B097B720DDC64020D681
:20142000565656D7BC8D087E1215C6147E0313DE75DFB0967797B239E601D7B3CA80D7B0BC
:20144000E600EE02DFB1D7AF39CE00A72006CE00A38CDE9E96AFA70096B38A7F94B0A70129
:2014600096B1A70296B2A7033996BA97B3DEB6DFAFDEB8DFB139DEB0DFB7DEB2DFB996AFA5
:2014800097B639D6AF2708D6B359C6FF250150398DF1D7B07F00B1C68896B08080D7AF86E7
:2014A0000097B297BC97B37E12117F00B339E60027D1E601D8B32BCFD6AFE1002617E60166
:2014C000CA7FD4B0E101260DD6B1E1022607D6B2E00326013956D8B320AFD6AF2741C098D3
:2014E00096B32A067300B5BD1270CE00AFC1F82E07BD129C7F00B5397F00B596B34976008D
:20150000B07E12A8D6AFC198241B8DCED7BC96B3D7B38080869897AF96B297587E1211D7F2
:20152000B0D7B1D7B239CE0000DFB3DFAFDFB1DFA9DFA7256B812D26057300B42004812BC5
:201540002605BD00BF2559812E272D8145262EBD00BF256981A2270E812D270A81A12709B6
:20156000812B270520087300AABD00BF254F7D00AA270A7000A920057300A826C596A990F3
:20158000A797A927142A0ABD13B07C00A926F82008BD13977A00A926F896B42A887E173B96
:2015A000D6A7D0A8D7A736BD139733C0308D022091BD144EBD1492CE00A37E11C4D6A9589B
:2015C00058DBA95880301B97A9209E91434FF8947423F794742400CE02928D10968AD68B25
:2015E00097B0D7B1C6900DBD149D8D037E0879CE01008620D6B32A02862DA70097B3DFBD52
:20160000088630D6AF26037E16DE4FC1802208CE15D3BD130886FA97A7CE15CFBD14B82E7D
:2016200010CE15CBBD14B82E10BD13977A00A720F0BD13B07C00A720E0BD11B4BD14DAC6F7
:201640000196A78B072B08810824044A1686024A4A97A9D7A72E11DEBD862E08A7005D27DB
:2016600005863008A700DFBDCE16EAC68096B2AB0297B296B1A90197B196B0A90097B05C47
:20168000565928E92403C00B50CB2F080808DF9CDEBD0817847FA7007A00A72605862E084F
:2016A000A700DFBDDE9C53C4808C16FC26BFDEBDA60009813027F9812E270108862BD6A929
:2016C000271E2A03862D50A7028645A701862F4CC00A24FBCB3AA703E7046F052004A700B6
:2016E0006F01CE01003980000000FE7960002710FFFC18000064FFFFF6000001BD1476CE63
:2017000016E6BD143827614D26037E1230CE00ABBD14545F96BA2A10BD1504CE00AB96BAE0
:20172000BD14B8260343D658BD146B37BD12D2CE00ABBD13088D31324624AA96AF2703733B
:2017400000B3398138AA3B0774942E40772E4F707A88026E7C2AA0E67EAAAA507F7FFFFF62
:201760008180000081000000BD144ECE17438D3D96AF818825037E1388BD150496588B8177
:2017800027F436CE12B1BD11C4BD1305CE00A3BD11B98DA7CE17478D177F00BB32BD137157
:2017A00039DFBDBD144E8D058D08CE00A37E1308DFBDBD1449DEBDE600D7B408DFBD8DED24
:2017C000DEBD08080808DFBDBD11C4CE00A77A00B426EB399835447A6828B146BD148317B6
:2017E0002B14CE010DBD14384D27E8CE17D48DBDCE17D8BD11C4D6B296B097B2D7B07F00FA
:20180000B396AF97BC868097AFBD1215CE010D7E1454CE1881BD11C4BD1476CE1885D6BA50
:20182000BD13B7BD1476BD15047F00BB96B6D6AFBD11BCCE1889BD11B996B3362A0ABD11F8
:20184000B496B32B06730060BD173BCE1889BD11C4324D2A03BD173BCE188D7E17A1BD1442
:201860004E7F00608DB2CE00AB8DA4CE00A3BD14387F00B396608D06CE00AB7E13BC362001
:20188000C781490FDB83490FDB7F00000004861ED7BA879926648723345886A55DE083494B
:2018A0000FDA96B3362A028D2096AF3681812505CE12B18DC6CE18CD8DA13281812506CE4E
:2018C0001881BD11B9324D2A037E173B3908783BD74A7B846E027C2FC1FE7D9A31747D5AEB
:2018E0003D847E917FC87E4CBBE47FAAAA6C8100000000CE1A1FBD0879CEFFFFDF8A8E1B85
:201900001B9F827F0111BD0834CE0065DF61CE1AAABD0879BD08F9DFC8BD00BF814127D321
:201920004D2615CE1AB7088637A700A10026174AA700A10027F0200EBD00C7BD07674D273C
:20194000037E0B49DE8E09DF88DF84CE1A43BD0879BD08F9DFC8BD00BF16271CBD0767960F
:201960008E26E8968F811025E2970C800E24FC40800E9B0C970D20088648970C8638970DA9
:20198000C6CE86FFDB89998825037E03119782D783CE1A0ABD0879BD08F9DFC8BD00BFCE9D
:2019A00018F28159272481412704814E26E3CE0D4CFF0133CE18A28141270FCE0D4CFF0132
:2019C0002DFF0131FF012FCE18124FA70008DF7ADE822B058C1B1B2BB1DF82967AD67BBD7E
:2019E00002F0BD0834D683D07B9682927ABD15E0CE1A52BD0879CE0879FF0113BD04E4867D
:201A0000BD9704CE0500DF057E033C57414E542053494E2D434F532D54414E2D4154CE0004
:201A20000D0A0C5752495454454E204259205249434841524420572E205745494C414E44B5
:201A4000AE0D0A005445524D494E414C2057494454C80020425954455320465245C50D0AC5
:201A60000D0A4D49545320414C54414952203638302042415349432056455253494F4E208F
:201A8000312E312052455620332EB20D0A434F505952494748542031393736204259204D87
:201AA00049545320494E43AE0D0A004D454D4F52592053495AC500002049532049542052D8
:201AC000455455524E0D20424551204F55540D2042524120494E5441504520474554204E0A
:201AE000455854204348415241435445520D20454E440D0000000000000000000000000037
:011B000000E4
:00000001FF
